{
  "fileName": "Counter.sol",
  "contractName": "Counter",
  "source": "pragma solidity ^0.5.0;\n\ncontract Counter {\n  uint256 public value;\n\n  function increase() public {\n    value++;\n  }\n\n  function decrease() public {\n    value--;\n  }\n}",
  "sourcePath": "contracts/Counter.sol",
  "abi": [
    {
      "constant": true,
      "inputs": [],
      "name": "value",
      "outputs": [
        {
          "name": "",
          "type": "uint256"
        }
      ],
      "payable": false,
      "stateMutability": "view",
      "type": "function"
    },
    {
      "constant": false,
      "inputs": [],
      "name": "decrease",
      "outputs": [],
      "payable": false,
      "stateMutability": "nonpayable",
      "type": "function"
    },
    {
      "constant": false,
      "inputs": [],
      "name": "increase",
      "outputs": [],
      "payable": false,
      "stateMutability": "nonpayable",
      "type": "function"
    }
  ],
  "bytecode": "0x60806040523480156100115760006000fd5b50610017565b60e3806100256000396000f3fe608060405234801560105760006000fd5b506004361060405760003560e01c80633fa4f245146046578063d732d955146062578063e8927fbc14606a576040565b60006000fd5b604c6072565b6040518082815260200191505060405180910390f35b6068607b565b005b60706095565b005b60006000505481565b60006000818150548092919060019003919050909055505b565b600060008181505480929190600101919050909055505b56fea265627a7a72305820b62bcd5d877180ab239389b90992601ec5ee75dbc304cc59bb97e27588a9cb3e64736f6c634300050a0032",
  "compiler": {
    "name": "solc",
    "version": "0.5.10+commit.5a6ea5b1.Emscripten.clang",
    "optimizer": {},
    "evmVersion": "constantinople"
  }
}